{
  "contractName": "PublicBubble",
  "abi": [
    {
      "inputs": [
        {
          "internalType": "address",
          "name": "user",
          "type": "address"
        },
        {
          "internalType": "uint256",
          "name": "contentId",
          "type": "uint256"
        }
      ],
      "name": "getAccessPermissions",
      "outputs": [
        {
          "internalType": "uint256",
          "name": "",
          "type": "uint256"
        }
      ],
      "stateMutability": "view",
      "type": "function"
    },
    {
      "inputs": [],
      "name": "terminate",
      "outputs": [],
      "stateMutability": "nonpayable",
      "type": "function"
    }
  ],
  "bytecode": "0x6080604052336000806101000a81548173ffffffffffffffffffffffffffffffffffffffff021916908373ffffffffffffffffffffffffffffffffffffffff16021790555060008060146101000a81548160ff02191690831515021790555034801561006a57600080fd5b506103e38061007a6000396000f3fe608060405234801561001057600080fd5b50600436106100365760003560e01c80630c08bf881461003b578063c48dbf6a14610045575b600080fd5b610043610075565b005b61005f600480360381019061005a9190610260565b610120565b60405161006c91906102ee565b60405180910390f35b60008054906101000a900473ffffffffffffffffffffffffffffffffffffffff1673ffffffffffffffffffffffffffffffffffffffff163373ffffffffffffffffffffffffffffffffffffffff1614610103576040517f08c379a00000000000000000000000000000000000000000000000000000000081526004016100fa906102ce565b60405180910390fd5b6001600060146101000a81548160ff021916908315150217905550565b60008060149054906101000a900460ff161561015e577f80000000000000000000000000000000000000000000000000000000000000009050610230565b6000821480156101ba575060008054906101000a900473ffffffffffffffffffffffffffffffffffffffff1673ffffffffffffffffffffffffffffffffffffffff168373ffffffffffffffffffffffffffffffffffffffff1614155b156101c85760009050610230565b7f08000000000000000000000000000000000000000000000000000000000000007f10000000000000000000000000000000000000000000000000000000000000007f2000000000000000000000000000000000000000000000000000000000000000171790505b92915050565b6000813590506102458161037f565b92915050565b60008135905061025a81610396565b92915050565b6000806040838503121561027357600080fd5b600061028185828601610236565b92505060206102928582860161024b565b9150509250929050565b60006102a9601183610309565b91506102b482610356565b602082019050919050565b6102c88161034c565b82525050565b600060208201905081810360008301526102e78161029c565b9050919050565b600060208201905061030360008301846102bf565b92915050565b600082825260208201905092915050565b60006103258261032c565b9050919050565b600073ffffffffffffffffffffffffffffffffffffffff82169050919050565b6000819050919050565b7f7065726d697373696f6e2064656e696564000000000000000000000000000000600082015250565b6103888161031a565b811461039357600080fd5b50565b61039f8161034c565b81146103aa57600080fd5b5056fea2646970667358221220e5cc2341ea4c8983567e7c430ebd28b7bbb17c7bcb536e834fa1b21e82e4d7d564736f6c63430008040033",
  "immutableReferences": {},
  "source": "// SPDX-License-Identifier: MIT\r\n\r\npragma solidity ^0.8.0;\r\n\r\nimport \"./AccessControlledStorage.sol\";\r\nimport \"./AccessControlBits.sol\";\r\n\r\n\r\ncontract PublicBubble {\r\n\r\n  address owner = msg.sender;\r\n  bool terminated = false;\r\n\r\n  // override issue !!!\r\n  function getAccessPermissions( address user, uint256 contentId ) external view returns (uint256) {\r\n\r\n        /**\r\n         * If the bubble has been terminated, the off-chain storage service will delete the bubble and \r\n         * all its contents.\r\n         */\r\n        if (terminated) return BUBBLE_TERMINATED_BIT;\r\n\r\n        /**\r\n         * File 0 is a special file that represents the root of the bubble. Only users with write permission \r\n         * to file 0 can construct the bubble on an off-chain storage service.\r\n         */\r\n        else if (contentId == 0 && user != owner) return NO_PERMISSIONS;\r\n\r\n        /**\r\n         * All files within the bubble are public.  Anyone can read, write and append.\r\n         */\r\n        else return READ_BIT | WRITE_BIT | APPEND_BIT;\r\n  }\r\n\r\n    // Owner can terminate the bubble forcing the off-chain storage service to delete the bubble and its contents\r\n    function terminate() external {\r\n        require(msg.sender == owner, \"permission denied\");\r\n        terminated = true;\r\n    }\r\n\r\n}",
  "sourcePath": "D:\\git\\tuto\\contracts\\PublicBubble.sol",
  "compiler": {
    "name": "solc",
    "version": "0.8.4+commit.c7e474f2.Emscripten.clang"
  },
  "schemaVersion": "3.4.15",
  "updatedAt": "2023-08-09T09:47:35.916Z",
  "devdoc": {
    "kind": "dev",
    "methods": {},
    "version": 1
  },
  "userdoc": {
    "kind": "user",
    "methods": {},
    "version": 1
  }
}