{
  "contractName": "TasksList",
  "abi": [
    {
      "anonymous": false,
      "inputs": [
        {
          "indexed": false,
          "internalType": "address",
          "name": "recipient",
          "type": "address"
        },
        {
          "indexed": false,
          "internalType": "uint256",
          "name": "TaskId",
          "type": "uint256"
        }
      ],
      "name": "AddTask",
      "type": "event"
    },
    {
      "anonymous": false,
      "inputs": [
        {
          "indexed": false,
          "internalType": "uint256",
          "name": "TaskId",
          "type": "uint256"
        },
        {
          "indexed": false,
          "internalType": "bool",
          "name": "isDeleted",
          "type": "bool"
        }
      ],
      "name": "DeleteTask",
      "type": "event"
    },
    {
      "inputs": [
        {
          "internalType": "uint256",
          "name": "",
          "type": "uint256"
        }
      ],
      "name": "taskToOwner",
      "outputs": [
        {
          "internalType": "address",
          "name": "",
          "type": "address"
        }
      ],
      "stateMutability": "view",
      "type": "function",
      "constant": true
    },
    {
      "inputs": [
        {
          "internalType": "address",
          "name": "user",
          "type": "address"
        },
        {
          "internalType": "uint256",
          "name": "contentId",
          "type": "uint256"
        }
      ],
      "name": "getAccessPermissions",
      "outputs": [
        {
          "internalType": "uint256",
          "name": "",
          "type": "uint256"
        }
      ],
      "stateMutability": "view",
      "type": "function",
      "constant": true
    },
    {
      "inputs": [],
      "name": "terminate",
      "outputs": [],
      "stateMutability": "nonpayable",
      "type": "function"
    },
    {
      "inputs": [
        {
          "internalType": "string",
          "name": "content",
          "type": "string"
        },
        {
          "internalType": "bool",
          "name": "isDeleted",
          "type": "bool"
        }
      ],
      "name": "addTask",
      "outputs": [],
      "stateMutability": "nonpayable",
      "type": "function"
    },
    {
      "inputs": [],
      "name": "getMyTasks",
      "outputs": [
        {
          "components": [
            {
              "internalType": "uint256",
              "name": "id",
              "type": "uint256"
            },
            {
              "internalType": "string",
              "name": "content",
              "type": "string"
            },
            {
              "internalType": "bool",
              "name": "isDeleted",
              "type": "bool"
            }
          ],
          "internalType": "struct TasksList.Task[]",
          "name": "",
          "type": "tuple[]"
        }
      ],
      "stateMutability": "view",
      "type": "function",
      "constant": true
    },
    {
      "inputs": [
        {
          "internalType": "uint256",
          "name": "taskId",
          "type": "uint256"
        },
        {
          "internalType": "bool",
          "name": "isDeleted",
          "type": "bool"
        }
      ],
      "name": "deleteTask",
      "outputs": [],
      "stateMutability": "nonpayable",
      "type": "function"
    }
  ],
  "bytecode": "0x6080604052336000806101000a81548173ffffffffffffffffffffffffffffffffffffffff021916908373ffffffffffffffffffffffffffffffffffffffff16021790555060008060146101000a81548160ff02191690831515021790555034801561006a57600080fd5b5061112f8061007a6000396000f3fe608060405234801561001057600080fd5b50600436106100625760003560e01c80630c08bf881461006757806320df4581146100715780636641c6c41461008d5780636e13f818146100bd578063aaba2907146100db578063c48dbf6a146100f7575b600080fd5b61006f610127565b005b61008b60048036038101906100869190610af8565b6101d2565b005b6100a760048036038101906100a29190610b4c565b6102fd565b6040516100b49190610d31565b60405180910390f35b6100c5610330565b6040516100d29190610d75565b60405180910390f35b6100f560048036038101906100f09190610b75565b610731565b005b610111600480360381019061010c9190610abc565b610839565b60405161011e9190610db7565b60405180910390f35b60008054906101000a900473ffffffffffffffffffffffffffffffffffffffff1673ffffffffffffffffffffffffffffffffffffffff163373ffffffffffffffffffffffffffffffffffffffff16146101b5576040517f08c379a00000000000000000000000000000000000000000000000000000000081526004016101ac90610d97565b60405180910390fd5b6001600060146101000a81548160ff021916908315150217905550565b6000600180549050905060016040518060600160405280838152602001858152602001841515815250908060018154018082558091505060019003906000526020600020906003020160009091909190915060008201518160000155602082015181600101908051906020019061024a92919061094f565b5060408201518160020160006101000a81548160ff0219169083151502179055505050336002600083815260200190815260200160002060006101000a81548173ffffffffffffffffffffffffffffffffffffffff021916908373ffffffffffffffffffffffffffffffffffffffff1602179055507f1f54e1ba1832d428fbd7e7792beaf62b1fc5a382c207ffd614209c1413e94fda33826040516102f0929190610d4c565b60405180910390a1505050565b60026020528060005260406000206000915054906101000a900473ffffffffffffffffffffffffffffffffffffffff1681565b6060600060018054905067ffffffffffffffff811115610379577f4e487b7100000000000000000000000000000000000000000000000000000000600052604160045260246000fd5b6040519080825280602002602001820160405280156103b257816020015b61039f6109d5565b8152602001906001900390816103975790505b5090506000805b600180549050811015610605573373ffffffffffffffffffffffffffffffffffffffff166002600083815260200190815260200160002060009054906101000a900473ffffffffffffffffffffffffffffffffffffffff1673ffffffffffffffffffffffffffffffffffffffff161480156104905750600015156001828154811061046d577f4e487b7100000000000000000000000000000000000000000000000000000000600052603260045260246000fd5b906000526020600020906003020160020160009054906101000a900460ff161515145b156105f257600181815481106104cf577f4e487b7100000000000000000000000000000000000000000000000000000000600052603260045260246000fd5b90600052602060002090600302016040518060600160405290816000820154815260200160018201805461050290610f41565b80601f016020809104026020016040519081016040528092919081815260200182805461052e90610f41565b801561057b5780601f106105505761010080835404028352916020019161057b565b820191906000526020600020905b81548152906001019060200180831161055e57829003601f168201915b505050505081526020016002820160009054906101000a900460ff1615151515815250508383815181106105d8577f4e487b7100000000000000000000000000000000000000000000000000000000600052603260045260246000fd5b602002602001018190525081806105ee90610fa4565b9250505b80806105fd90610fa4565b9150506103b9565b5060008167ffffffffffffffff811115610648577f4e487b7100000000000000000000000000000000000000000000000000000000600052604160045260246000fd5b60405190808252806020026020018201604052801561068157816020015b61066e6109d5565b8152602001906001900390816106665790505b50905060005b82811015610727578381815181106106c8577f4e487b7100000000000000000000000000000000000000000000000000000000600052603260045260246000fd5b6020026020010151828281518110610709577f4e487b7100000000000000000000000000000000000000000000000000000000600052603260045260246000fd5b6020026020010181905250808061071f90610fa4565b915050610687565b5080935050505090565b3373ffffffffffffffffffffffffffffffffffffffff166002600084815260200190815260200160002060009054906101000a900473ffffffffffffffffffffffffffffffffffffffff1673ffffffffffffffffffffffffffffffffffffffff1614156108355780600183815481106107d3577f4e487b7100000000000000000000000000000000000000000000000000000000600052603260045260246000fd5b906000526020600020906003020160020160006101000a81548160ff0219169083151502179055507ff88a35c3d2016c409a46570b994a17b408dbc83c14a03f521512d50b85386d06828260405161082c929190610dd2565b60405180910390a15b5050565b60008060149054906101000a900460ff1615610877577f80000000000000000000000000000000000000000000000000000000000000009050610949565b6000821480156108d3575060008054906101000a900473ffffffffffffffffffffffffffffffffffffffff1673ffffffffffffffffffffffffffffffffffffffff168373ffffffffffffffffffffffffffffffffffffffff1614155b156108e15760009050610949565b7f08000000000000000000000000000000000000000000000000000000000000007f10000000000000000000000000000000000000000000000000000000000000007f2000000000000000000000000000000000000000000000000000000000000000171790505b92915050565b82805461095b90610f41565b90600052602060002090601f01602090048101928261097d57600085556109c4565b82601f1061099657805160ff19168380011785556109c4565b828001600101855582156109c4579182015b828111156109c35782518255916020019190600101906109a8565b5b5090506109d191906109f8565b5090565b604051806060016040528060008152602001606081526020016000151581525090565b5b80821115610a115760008160009055506001016109f9565b5090565b6000610a28610a2384610e20565b610dfb565b905082815260208101848484011115610a4057600080fd5b610a4b848285610eff565b509392505050565b600081359050610a62816110b4565b92915050565b600081359050610a77816110cb565b92915050565b600082601f830112610a8e57600080fd5b8135610a9e848260208601610a15565b91505092915050565b600081359050610ab6816110e2565b92915050565b60008060408385031215610acf57600080fd5b6000610add85828601610a53565b9250506020610aee85828601610aa7565b9150509250929050565b60008060408385031215610b0b57600080fd5b600083013567ffffffffffffffff811115610b2557600080fd5b610b3185828601610a7d565b9250506020610b4285828601610a68565b9150509250929050565b600060208284031215610b5e57600080fd5b6000610b6c84828501610aa7565b91505092915050565b60008060408385031215610b8857600080fd5b6000610b9685828601610aa7565b9250506020610ba785828601610a68565b9150509250929050565b6000610bbd8383610cc3565b905092915050565b610bce81610eb7565b82525050565b6000610bdf82610e61565b610be98185610e84565b935083602082028501610bfb85610e51565b8060005b85811015610c375784840389528151610c188582610bb1565b9450610c2383610e77565b925060208a01995050600181019050610bff565b50829750879550505050505092915050565b610c5281610ec9565b82525050565b610c6181610ec9565b82525050565b6000610c7282610e6c565b610c7c8185610e95565b9350610c8c818560208601610f0e565b610c958161107a565b840191505092915050565b6000610cad601183610ea6565b9150610cb88261108b565b602082019050919050565b6000606083016000830151610cdb6000860182610d13565b5060208301518482036020860152610cf38282610c67565b9150506040830151610d086040860182610c49565b508091505092915050565b610d1c81610ef5565b82525050565b610d2b81610ef5565b82525050565b6000602082019050610d466000830184610bc5565b92915050565b6000604082019050610d616000830185610bc5565b610d6e6020830184610d22565b9392505050565b60006020820190508181036000830152610d8f8184610bd4565b905092915050565b60006020820190508181036000830152610db081610ca0565b9050919050565b6000602082019050610dcc6000830184610d22565b92915050565b6000604082019050610de76000830185610d22565b610df46020830184610c58565b9392505050565b6000610e05610e16565b9050610e118282610f73565b919050565b6000604051905090565b600067ffffffffffffffff821115610e3b57610e3a61104b565b5b610e448261107a565b9050602081019050919050565b6000819050602082019050919050565b600081519050919050565b600081519050919050565b6000602082019050919050565b600082825260208201905092915050565b600082825260208201905092915050565b600082825260208201905092915050565b6000610ec282610ed5565b9050919050565b60008115159050919050565b600073ffffffffffffffffffffffffffffffffffffffff82169050919050565b6000819050919050565b82818337600083830152505050565b60005b83811015610f2c578082015181840152602081019050610f11565b83811115610f3b576000848401525b50505050565b60006002820490506001821680610f5957607f821691505b60208210811415610f6d57610f6c61101c565b5b50919050565b610f7c8261107a565b810181811067ffffffffffffffff82111715610f9b57610f9a61104b565b5b80604052505050565b6000610faf82610ef5565b91507fffffffffffffffffffffffffffffffffffffffffffffffffffffffffffffffff821415610fe257610fe1610fed565b5b600182019050919050565b7f4e487b7100000000000000000000000000000000000000000000000000000000600052601160045260246000fd5b7f4e487b7100000000000000000000000000000000000000000000000000000000600052602260045260246000fd5b7f4e487b7100000000000000000000000000000000000000000000000000000000600052604160045260246000fd5b6000601f19601f8301169050919050565b7f7065726d697373696f6e2064656e696564000000000000000000000000000000600082015250565b6110bd81610eb7565b81146110c857600080fd5b50565b6110d481610ec9565b81146110df57600080fd5b50565b6110eb81610ef5565b81146110f657600080fd5b5056fea2646970667358221220eaebcce99fd6f61728880750c0f22e29360e3ed777aae18a79b74f52e2140d5064736f6c63430008040033",
  "immutableReferences": {},
  "source": "// SPDX-License-Identifier: MIT\r\n\r\npragma solidity ^0.8.0;\r\n\r\nimport \"./AccessControlledStorage.sol\";\r\nimport \"./AccessControlBits.sol\";\r\n\r\n\r\ncontract TasksList {\r\n\r\n  address owner = msg.sender;\r\n  bool terminated = false;\r\n\r\n  event AddTask(address recipient, uint TaskId);\r\n  event DeleteTask(uint TaskId, bool isDeleted);\r\n\r\n  struct Task {\r\n    uint id;\r\n    string content;\r\n    bool isDeleted;\r\n  }\r\n\r\n  Task[] private tasks;\r\n  mapping(uint256 => address) public taskToOwner;\r\n\r\n  // override issue !!!\r\n  function getAccessPermissions( address user, uint256 contentId ) external view returns (uint256) {\r\n\r\n        /**\r\n         * If the bubble has been terminated, the off-chain storage service will delete the bubble and \r\n         * all its contents.\r\n         */\r\n        if (terminated) return BUBBLE_TERMINATED_BIT;\r\n\r\n        /**\r\n         * File 0 is a special file that represents the root of the bubble. Only users with write permission \r\n         * to file 0 can construct the bubble on an off-chain storage service.\r\n         */\r\n        else if (contentId == 0 && user != owner) return NO_PERMISSIONS;\r\n\r\n        /**\r\n         * All files within the bubble are public.  Anyone can read, write and append.\r\n         */\r\n        else return READ_BIT | WRITE_BIT | APPEND_BIT;\r\n  }\r\n\r\n    // Owner can terminate the bubble forcing the off-chain storage service to delete the bubble and its contents\r\n    function terminate() external {\r\n        require(msg.sender == owner, \"permission denied\");\r\n        terminated = true;\r\n    }\r\n\r\n  function addTask(string memory content, bool isDeleted) external {\r\n    uint taskId = tasks.length;\r\n    tasks.push(Task(taskId, content, isDeleted));\r\n    taskToOwner[taskId] = msg.sender;\r\n    emit AddTask(msg.sender, taskId);\r\n  }\r\n\r\n  function getMyTasks() external view returns (Task[] memory) {\r\n      Task[] memory temporary = new Task[](tasks.length); // Array no longer than our tasks\r\n      uint counter = 0;\r\n\r\n      for(uint i = 0; i < tasks.length; i++) {\r\n        if(taskToOwner[i] == msg.sender && tasks[i].isDeleted == false) {\r\n          temporary[counter] = tasks[i];\r\n          counter++;\r\n        }\r\n      }\r\n      Task[] memory result = new Task[](counter);\r\n      for(uint i = 0; i < counter; i++) {\r\n        result[i] = temporary[i];\r\n      }\r\n      return result;\r\n  }\r\n\r\n  function deleteTask(uint taskId, bool isDeleted) external {\r\n      if(taskToOwner[taskId] == msg.sender) {\r\n        tasks[taskId].isDeleted = isDeleted;\r\n        emit DeleteTask(taskId, isDeleted);\r\n      }\r\n  }\r\n}",
  "sourcePath": "D:\\git\\tuto\\contracts\\TasksList.sol",
  "compiler": {
    "name": "solc",
    "version": "0.8.4+commit.c7e474f2.Emscripten.clang"
  },
  "schemaVersion": "3.4.14",
  "updatedAt": "2023-08-08T15:38:02.021Z",
  "networkType": "ethereum",
  "devdoc": {
    "kind": "dev",
    "methods": {},
    "version": 1
  },
  "userdoc": {
    "kind": "user",
    "methods": {},
    "version": 1
  }
}