{
  "contractName": "TaskContract",
  "abi": [
    {
      "anonymous": false,
      "inputs": [
        {
          "indexed": false,
          "internalType": "address",
          "name": "recipient",
          "type": "address"
        },
        {
          "indexed": false,
          "internalType": "uint256",
          "name": "TaskId",
          "type": "uint256"
        }
      ],
      "name": "AddTask",
      "type": "event"
    },
    {
      "anonymous": false,
      "inputs": [
        {
          "indexed": false,
          "internalType": "uint256",
          "name": "TaskId",
          "type": "uint256"
        },
        {
          "indexed": false,
          "internalType": "bool",
          "name": "isDeleted",
          "type": "bool"
        }
      ],
      "name": "DeleteTask",
      "type": "event"
    },
    {
      "inputs": [
        {
          "internalType": "uint256",
          "name": "",
          "type": "uint256"
        }
      ],
      "name": "taskToOwner",
      "outputs": [
        {
          "internalType": "address",
          "name": "",
          "type": "address"
        }
      ],
      "stateMutability": "view",
      "type": "function"
    },
    {
      "inputs": [
        {
          "internalType": "string",
          "name": "content",
          "type": "string"
        },
        {
          "internalType": "bool",
          "name": "isDeleted",
          "type": "bool"
        }
      ],
      "name": "addTask",
      "outputs": [],
      "stateMutability": "nonpayable",
      "type": "function"
    },
    {
      "inputs": [],
      "name": "getMyTasks",
      "outputs": [
        {
          "components": [
            {
              "internalType": "uint256",
              "name": "id",
              "type": "uint256"
            },
            {
              "internalType": "string",
              "name": "content",
              "type": "string"
            },
            {
              "internalType": "bool",
              "name": "isDeleted",
              "type": "bool"
            }
          ],
          "internalType": "struct TaskContract.Task[]",
          "name": "",
          "type": "tuple[]"
        }
      ],
      "stateMutability": "view",
      "type": "function"
    },
    {
      "inputs": [
        {
          "internalType": "uint256",
          "name": "taskId",
          "type": "uint256"
        },
        {
          "internalType": "bool",
          "name": "isDeleted",
          "type": "bool"
        }
      ],
      "name": "deleteTask",
      "outputs": [],
      "stateMutability": "nonpayable",
      "type": "function"
    }
  ],
  "bytecode": "0x608060405234801561001057600080fd5b50610e1c806100206000396000f3fe608060405234801561001057600080fd5b506004361061004c5760003560e01c806320df4581146100515780636641c6c41461006d5780636e13f8181461009d578063aaba2907146100bb575b600080fd5b61006b60048036038101906100669190610894565b6100d7565b005b610087600480360381019061008291906108e8565b610201565b6040516100949190610aaa565b60405180910390f35b6100a5610234565b6040516100b29190610aee565b60405180910390f35b6100d560048036038101906100d09190610911565b610634565b005b60008080549050905060006040518060600160405280838152602001858152602001841515815250908060018154018082558091505060019003906000526020600020906003020160009091909190915060008201518160000155602082015181600101908051906020019061014e92919061073c565b5060408201518160020160006101000a81548160ff0219169083151502179055505050336001600083815260200190815260200160002060006101000a81548173ffffffffffffffffffffffffffffffffffffffff021916908373ffffffffffffffffffffffffffffffffffffffff1602179055507f1f54e1ba1832d428fbd7e7792beaf62b1fc5a382c207ffd614209c1413e94fda33826040516101f4929190610ac5565b60405180910390a1505050565b60016020528060005260406000206000915054906101000a900473ffffffffffffffffffffffffffffffffffffffff1681565b60606000808054905067ffffffffffffffff81111561027c577f4e487b7100000000000000000000000000000000000000000000000000000000600052604160045260246000fd5b6040519080825280602002602001820160405280156102b557816020015b6102a26107c2565b81526020019060019003908161029a5790505b5090506000805b600080549050811015610508573373ffffffffffffffffffffffffffffffffffffffff166001600083815260200190815260200160002060009054906101000a900473ffffffffffffffffffffffffffffffffffffffff1673ffffffffffffffffffffffffffffffffffffffff1614801561039357506000151560008281548110610370577f4e487b7100000000000000000000000000000000000000000000000000000000600052603260045260246000fd5b906000526020600020906003020160020160009054906101000a900460ff161515145b156104f557600081815481106103d2577f4e487b7100000000000000000000000000000000000000000000000000000000600052603260045260246000fd5b90600052602060002090600302016040518060600160405290816000820154815260200160018201805461040590610c6e565b80601f016020809104026020016040519081016040528092919081815260200182805461043190610c6e565b801561047e5780601f106104535761010080835404028352916020019161047e565b820191906000526020600020905b81548152906001019060200180831161046157829003601f168201915b505050505081526020016002820160009054906101000a900460ff1615151515815250508383815181106104db577f4e487b7100000000000000000000000000000000000000000000000000000000600052603260045260246000fd5b602002602001018190525081806104f190610cd1565b9250505b808061050090610cd1565b9150506102bc565b5060008167ffffffffffffffff81111561054b577f4e487b7100000000000000000000000000000000000000000000000000000000600052604160045260246000fd5b60405190808252806020026020018201604052801561058457816020015b6105716107c2565b8152602001906001900390816105695790505b50905060005b8281101561062a578381815181106105cb577f4e487b7100000000000000000000000000000000000000000000000000000000600052603260045260246000fd5b602002602001015182828151811061060c577f4e487b7100000000000000000000000000000000000000000000000000000000600052603260045260246000fd5b6020026020010181905250808061062290610cd1565b91505061058a565b5080935050505090565b3373ffffffffffffffffffffffffffffffffffffffff166001600084815260200190815260200160002060009054906101000a900473ffffffffffffffffffffffffffffffffffffffff1673ffffffffffffffffffffffffffffffffffffffff1614156107385780600083815481106106d6577f4e487b7100000000000000000000000000000000000000000000000000000000600052603260045260246000fd5b906000526020600020906003020160020160006101000a81548160ff0219169083151502179055507ff88a35c3d2016c409a46570b994a17b408dbc83c14a03f521512d50b85386d06828260405161072f929190610b10565b60405180910390a15b5050565b82805461074890610c6e565b90600052602060002090601f01602090048101928261076a57600085556107b1565b82601f1061078357805160ff19168380011785556107b1565b828001600101855582156107b1579182015b828111156107b0578251825591602001919060010190610795565b5b5090506107be91906107e5565b5090565b604051806060016040528060008152602001606081526020016000151581525090565b5b808211156107fe5760008160009055506001016107e6565b5090565b600061081561081084610b5e565b610b39565b90508281526020810184848401111561082d57600080fd5b610838848285610c2c565b509392505050565b60008135905061084f81610db8565b92915050565b600082601f83011261086657600080fd5b8135610876848260208601610802565b91505092915050565b60008135905061088e81610dcf565b92915050565b600080604083850312156108a757600080fd5b600083013567ffffffffffffffff8111156108c157600080fd5b6108cd85828601610855565b92505060206108de85828601610840565b9150509250929050565b6000602082840312156108fa57600080fd5b60006109088482850161087f565b91505092915050565b6000806040838503121561092457600080fd5b60006109328582860161087f565b925050602061094385828601610840565b9150509250929050565b60006109598383610a3c565b905092915050565b61096a81610be4565b82525050565b600061097b82610b9f565b6109858185610bc2565b93508360208202850161099785610b8f565b8060005b858110156109d357848403895281516109b4858261094d565b94506109bf83610bb5565b925060208a0199505060018101905061099b565b50829750879550505050505092915050565b6109ee81610bf6565b82525050565b6109fd81610bf6565b82525050565b6000610a0e82610baa565b610a188185610bd3565b9350610a28818560208601610c3b565b610a3181610da7565b840191505092915050565b6000606083016000830151610a546000860182610a8c565b5060208301518482036020860152610a6c8282610a03565b9150506040830151610a8160408601826109e5565b508091505092915050565b610a9581610c22565b82525050565b610aa481610c22565b82525050565b6000602082019050610abf6000830184610961565b92915050565b6000604082019050610ada6000830185610961565b610ae76020830184610a9b565b9392505050565b60006020820190508181036000830152610b088184610970565b905092915050565b6000604082019050610b256000830185610a9b565b610b3260208301846109f4565b9392505050565b6000610b43610b54565b9050610b4f8282610ca0565b919050565b6000604051905090565b600067ffffffffffffffff821115610b7957610b78610d78565b5b610b8282610da7565b9050602081019050919050565b6000819050602082019050919050565b600081519050919050565b600081519050919050565b6000602082019050919050565b600082825260208201905092915050565b600082825260208201905092915050565b6000610bef82610c02565b9050919050565b60008115159050919050565b600073ffffffffffffffffffffffffffffffffffffffff82169050919050565b6000819050919050565b82818337600083830152505050565b60005b83811015610c59578082015181840152602081019050610c3e565b83811115610c68576000848401525b50505050565b60006002820490506001821680610c8657607f821691505b60208210811415610c9a57610c99610d49565b5b50919050565b610ca982610da7565b810181811067ffffffffffffffff82111715610cc857610cc7610d78565b5b80604052505050565b6000610cdc82610c22565b91507fffffffffffffffffffffffffffffffffffffffffffffffffffffffffffffffff821415610d0f57610d0e610d1a565b5b600182019050919050565b7f4e487b7100000000000000000000000000000000000000000000000000000000600052601160045260246000fd5b7f4e487b7100000000000000000000000000000000000000000000000000000000600052602260045260246000fd5b7f4e487b7100000000000000000000000000000000000000000000000000000000600052604160045260246000fd5b6000601f19601f8301169050919050565b610dc181610bf6565b8114610dcc57600080fd5b50565b610dd881610c22565b8114610de357600080fd5b5056fea2646970667358221220e190cf60db4afe52f566978be46de1466125161dec64b98d87f3de30107cda4a64736f6c63430008040033",
  "immutableReferences": {},
  "source": "// SPDX-License-Identifier: MIT\r\n\r\npragma solidity ^0.8.0;\r\n\r\ncontract TaskContract {\r\n    event AddTask(address recipient, uint TaskId);\r\n    event DeleteTask(uint TaskId, bool isDeleted);\r\n\r\n  struct Task {\r\n    uint id;\r\n    string content;\r\n    bool isDeleted;\r\n  }\r\n\r\n  Task[] private tasks;\r\n  mapping(uint256 => address) public taskToOwner;\r\n\r\n  function addTask(string memory content, bool isDeleted) external {\r\n    uint taskId = tasks.length;\r\n    tasks.push(Task(taskId, content, isDeleted));\r\n    taskToOwner[taskId] = msg.sender;\r\n    emit AddTask(msg.sender, taskId);\r\n  }\r\n\r\n    // Get tasks that are mine\r\n  function getMyTasks() external view returns (Task[] memory) {\r\n      Task[] memory temporary = new Task[](tasks.length); // Array no longer than our tasks\r\n      uint counter = 0;\r\n\r\n      for(uint i = 0; i < tasks.length; i++) {\r\n        // if(taskToOwner[tasks[i].id] == msg.sender)\r\n        if(taskToOwner[i] == msg.sender && tasks[i].isDeleted == false) {\r\n          temporary[counter] = tasks[i];\r\n          counter++;\r\n        }\r\n      }\r\n      Task[] memory result = new Task[](counter);\r\n      for(uint i = 0; i < counter; i++) {\r\n        result[i] = temporary[i];\r\n      }\r\n      return result;\r\n  }\r\n\r\n  function deleteTask(uint taskId, bool isDeleted) external {\r\n      if(taskToOwner[taskId] == msg.sender) {\r\n        tasks[taskId].isDeleted = isDeleted;\r\n        emit DeleteTask(taskId, isDeleted);\r\n      }\r\n  }\r\n}",
  "sourcePath": "D:\\git\\tuto\\contracts\\TasksList.sol",
  "compiler": {
    "name": "solc",
    "version": "0.8.4+commit.c7e474f2.Emscripten.clang"
  },
  "schemaVersion": "3.4.14",
  "updatedAt": "2023-08-07T11:03:44.999Z",
  "devdoc": {
    "kind": "dev",
    "methods": {},
    "version": 1
  },
  "userdoc": {
    "kind": "user",
    "methods": {},
    "version": 1
  }
}